{
  "_format": "hh-sol-artifact-1",
  "contractName": "Voting",
  "sourceName": "contracts/Voting.sol",
  "abi": [
    {
      "inputs": [
        {
          "internalType": "bytes32",
          "name": "_name",
          "type": "bytes32"
        }
      ],
      "name": "addCandidate",
      "outputs": [],
      "stateMutability": "nonpayable",
      "type": "function"
    },
    {
      "inputs": [
        {
          "internalType": "address",
          "name": "walletAddress",
          "type": "address"
        }
      ],
      "name": "addVoter",
      "outputs": [],
      "stateMutability": "nonpayable",
      "type": "function"
    },
    {
      "inputs": [
        {
          "internalType": "bytes32",
          "name": "_name",
          "type": "bytes32"
        }
      ],
      "name": "castVote",
      "outputs": [],
      "stateMutability": "nonpayable",
      "type": "function"
    },
    {
      "inputs": [],
      "name": "getCandidatesList",
      "outputs": [
        {
          "internalType": "bytes32[]",
          "name": "list",
          "type": "bytes32[]"
        }
      ],
      "stateMutability": "view",
      "type": "function"
    },
    {
      "inputs": [
        {
          "internalType": "bytes32",
          "name": "_name",
          "type": "bytes32"
        }
      ],
      "name": "getVoteCount",
      "outputs": [
        {
          "internalType": "uint256",
          "name": "votes",
          "type": "uint256"
        }
      ],
      "stateMutability": "view",
      "type": "function"
    }
  ],
  "bytecode": "0x6080604052336000806101000a81548173ffffffffffffffffffffffffffffffffffffffff021916908373ffffffffffffffffffffffffffffffffffffffff160217905550348015604f57600080fd5b50610c5a8061005f6000396000f3fe608060405234801561001057600080fd5b50600436106100575760003560e01c8063230d6ed81461005c5780633efafb6e146100785780634aba5f3414610094578063a1695993146100b2578063f4ab9adf146100e2575b600080fd5b61007660048036038101906100719190610690565b6100fe565b005b610092600480360381019061008d9190610690565b61022b565b005b61009c610428565b6040516100a9919061077b565b60405180910390f35b6100cc60048036038101906100c79190610690565b610480565b6040516100d991906107b6565b60405180910390f35b6100fc60048036038101906100f7919061082f565b6104fd565b005b60008054906101000a900473ffffffffffffffffffffffffffffffffffffffff1673ffffffffffffffffffffffffffffffffffffffff163373ffffffffffffffffffffffffffffffffffffffff161461018c576040517f08c379a0000000000000000000000000000000000000000000000000000000008152600401610183906108df565b60405180910390fd5b6000602060ff16116101d3576040517f08c379a00000000000000000000000000000000000000000000000000000000081526004016101ca9061094b565b60405180910390fd5b600581908060018154018082558091505060019003906000526020600020016000909190919091505560016004600083815260200190815260200160002060006101000a81548160ff02191690831515021790555050565b600360003373ffffffffffffffffffffffffffffffffffffffff1673ffffffffffffffffffffffffffffffffffffffff16815260200190815260200160002060009054906101000a900460ff166102b7576040517f08c379a00000000000000000000000000000000000000000000000000000000081526004016102ae906109b7565b60405180910390fd5b600260003373ffffffffffffffffffffffffffffffffffffffff1673ffffffffffffffffffffffffffffffffffffffff16815260200190815260200160002060009054906101000a900460ff1615610344576040517f08c379a000000000000000000000000000000000000000000000000000000000815260040161033b90610a23565b60405180910390fd5b6004600082815260200190815260200160002060009054906101000a900460ff166103a4576040517f08c379a000000000000000000000000000000000000000000000000000000000815260040161039b90610a8f565b60405180910390fd5b6001600082815260200190815260200160002060008154809291906103c890610ade565b91905055506001600260003373ffffffffffffffffffffffffffffffffffffffff1673ffffffffffffffffffffffffffffffffffffffff16815260200190815260200160002060006101000a81548160ff02191690831515021790555050565b6060600580548060200260200160405190810160405280929190818152602001828054801561047657602002820191906000526020600020905b815481526020019060010190808311610462575b5050505050905090565b60006004600083815260200190815260200160002060009054906101000a900460ff166104e2576040517f08c379a00000000000000000000000000000000000000000000000000000000081526004016104d990610a8f565b60405180910390fd5b60016000838152602001908152602001600020549050919050565b60008054906101000a900473ffffffffffffffffffffffffffffffffffffffff1673ffffffffffffffffffffffffffffffffffffffff163373ffffffffffffffffffffffffffffffffffffffff161461058b576040517f08c379a000000000000000000000000000000000000000000000000000000000815260040161058290610b98565b60405180910390fd5b600073ffffffffffffffffffffffffffffffffffffffff168173ffffffffffffffffffffffffffffffffffffffff16036105fa576040517f08c379a00000000000000000000000000000000000000000000000000000000081526004016105f190610c04565b60405180910390fd5b6001600360008373ffffffffffffffffffffffffffffffffffffffff1673ffffffffffffffffffffffffffffffffffffffff16815260200190815260200160002060006101000a81548160ff02191690831515021790555050565b600080fd5b6000819050919050565b61066d8161065a565b811461067857600080fd5b50565b60008135905061068a81610664565b92915050565b6000602082840312156106a6576106a5610655565b5b60006106b48482850161067b565b91505092915050565b600081519050919050565b600082825260208201905092915050565b6000819050602082019050919050565b6106f28161065a565b82525050565b600061070483836106e9565b60208301905092915050565b6000602082019050919050565b6000610728826106bd565b61073281856106c8565b935061073d836106d9565b8060005b8381101561076e57815161075588826106f8565b975061076083610710565b925050600181019050610741565b5085935050505092915050565b60006020820190508181036000830152610795818461071d565b905092915050565b6000819050919050565b6107b08161079d565b82525050565b60006020820190506107cb60008301846107a7565b92915050565b600073ffffffffffffffffffffffffffffffffffffffff82169050919050565b60006107fc826107d1565b9050919050565b61080c816107f1565b811461081757600080fd5b50565b60008135905061082981610803565b92915050565b60006020828403121561084557610844610655565b5b60006108538482850161081a565b91505092915050565b600082825260208201905092915050565b7f596f7520617265206e6f7420617574686f72697a656420746f2061646420636160008201527f6e64696461746573000000000000000000000000000000000000000000000000602082015250565b60006108c960288361085c565b91506108d48261086d565b604082019050919050565b600060208201905081810360008301526108f8816108bc565b9050919050565b7f506c656173652061646420746865206e616d6500000000000000000000000000600082015250565b600061093560138361085c565b9150610940826108ff565b602082019050919050565b6000602082019050818103600083015261096481610928565b9050919050565b7f596f7520617265206e6f7420612076616c696420766f74657200000000000000600082015250565b60006109a160198361085c565b91506109ac8261096b565b602082019050919050565b600060208201905081810360008301526109d081610994565b9050919050565b7f596f75206861766520616c726561647920766f74656400000000000000000000600082015250565b6000610a0d60168361085c565b9150610a18826109d7565b602082019050919050565b60006020820190508181036000830152610a3c81610a00565b9050919050565b7f43616e64696461746520646f6573206e6f742065786973740000000000000000600082015250565b6000610a7960188361085c565b9150610a8482610a43565b602082019050919050565b60006020820190508181036000830152610aa881610a6c565b9050919050565b7f4e487b7100000000000000000000000000000000000000000000000000000000600052601160045260246000fd5b6000610ae98261079d565b91507fffffffffffffffffffffffffffffffffffffffffffffffffffffffffffffffff8203610b1b57610b1a610aaf565b5b600182019050919050565b7f596f7520617265206e6f7420617574686f72697a656420746f2061646420766f60008201527f7465727300000000000000000000000000000000000000000000000000000000602082015250565b6000610b8260248361085c565b9150610b8d82610b26565b604082019050919050565b60006020820190508181036000830152610bb181610b75565b9050919050565b7f496e76616c696420766f74657220616464726573730000000000000000000000600082015250565b6000610bee60158361085c565b9150610bf982610bb8565b602082019050919050565b60006020820190508181036000830152610c1d81610be1565b905091905056fea2646970667358221220661bce8a097ef418d4e98b0ac657d33d64dda936913cda60c80fe4426918f8a464736f6c634300081c0033",
  "linkReferences": {},
  "deployedLinkReferences": {}
}